{
  "contractName": "Reservations",
  "abi": [
    {
      "constant": true,
      "inputs": [
        {
          "name": "",
          "type": "uint256"
        }
      ],
      "name": "flights",
      "outputs": [
        {
          "name": "max_seats",
          "type": "uint256"
        },
        {
          "name": "seat_count",
          "type": "uint256"
        },
        {
          "name": "origin",
          "type": "bytes32"
        },
        {
          "name": "dest",
          "type": "bytes32"
        },
        {
          "name": "exists",
          "type": "bool"
        }
      ],
      "payable": false,
      "stateMutability": "view",
      "type": "function",
      "signature": "0x3c2c6d85"
    },
    {
      "constant": true,
      "inputs": [
        {
          "name": "",
          "type": "uint256"
        },
        {
          "name": "name",
          "type": "string"
        },
        {
          "name": "n_flights",
          "type": "uint16"
        }
      ],
      "name": "airlines",
      "outputs": [
        {
          "name": "name",
          "type": "bytes32"
        },
        {
          "name": "flight_count",
          "type": "uint256"
        },
        {
          "name": "max_flight_count",
          "type": "uint256"
        },
        {
          "name": "exists",
          "type": "bool"
        }
      ],
      "payable": false,
      "stateMutability": "view",
      "type": "function",
      "signature": "0xfe543435"
    },
    {
      "constant": true,
      "inputs": [
        {
          "name": "",
          "type": "uint256"
        },
        {
          "name": "flight_id",
          "type": "uint16"
        },
        {
          "name": "max_seats",
          "type": "uint8"
        }
      ],
      "name": "seats",
      "outputs": [
        {
          "name": "passenger",
          "type": "address"
        },
        {
          "name": "exists",
          "type": "bool"
        },
        {
          "name": "exists",
          "type": "bool"
        }
      ],
      "payable": false,
      "stateMutability": "view",
      "type": "function",
      "signature": "0x40819a2a"
    },
    {
      "constant": false,
      "inputs": [
        {
          "name": "id",
          "type": "uint256"
        },
        {
          "name": "name",
          "type": "bytes32"
        },
        {
          "name": "seat_id",
          "type": "uint8"
        }
      ],
      "name": "createAirline",
      "outputs": [
        {
          "name": "",
          "type": "uint256"
        }
      ],
      "payable": false,
      "stateMutability": "nonpayable",
      "type": "function",
      "signature": "0xe4b599c5"
    },
    {
      "constant": false,
      "inputs": [
        {
          "name": "id",
          "type": "uint256"
        },
        {
          "name": "airline_id",
          "type": "uint256"
        },
        {
          "name": "orig",
          "type": "bytes32"
        },
        {
          "name": "dest",
          "type": "bytes32"
        }
      ],
      "name": "createFlight",
      "outputs": [
        {
          "name": "",
          "type": "uint256"
        }
      ],
      "payable": false,
      "stateMutability": "nonpayable",
      "type": "function",
      "signature": "0x8291e40b"
    },
    {
      "constant": false,
      "inputs": [
        {
          "name": "id",
          "type": "uint256"
        },
        {
          "name": "flight_id",
          "type": "uint256"
        },
        {
          "name": "airline_id",
          "type": "uint256"
        }
      ],
      "name": "reserveSeat",
      "outputs": [
        {
          "name": "",
          "type": "uint256"
        }
      ],
      "payable": false,
      "stateMutability": "nonpayable",
      "type": "function",
      "signature": "0x19ee9643"
    }
  ],
  "bytecode": "0x608060405234801561001057600080fd5b50610b44806100206000396000f3fe608060405260043610610078576000357c0100000000000000000000000000000000000000000000000000000000900463ffffffff1680630dc9422d1461007d57806315ccf70f146100e05780633a9a77ca1461014f5780633b33c702146101b757806382e0fa481461023d578063a2139087146102aa575b600080fd5b34801561008957600080fd5b506100ca600480360360608110156100a057600080fd5b81019080803590602001909291908035906020019092919080359060200190929190505050610303565b6040518082815260200191505060405180910390f35b3480156100ec57600080fd5b506101196004803603602081101561010357600080fd5b81019080803590602001909291905050506105d6565b60405180868152602001858152602001848152602001838152602001821515151581526020019550505050505060405180910390f35b34801561015b57600080fd5b506101886004803603602081101561017257600080fd5b8101908080359060200190929190505050610619565b604051808581526020018481526020018381526020018215151515815260200194505050505060405180910390f35b3480156101c357600080fd5b506101f0600480360360208110156101da57600080fd5b8101908080359060200190929190505050610656565b604051808373ffffffffffffffffffffffffffffffffffffffff1673ffffffffffffffffffffffffffffffffffffffff168152602001821515151581526020019250505060405180910390f35b34801561024957600080fd5b506102946004803603608081101561026057600080fd5b81019080803590602001909291908035906020019092919080359060200190929190803590602001909291905050506106a7565b6040518082815260200191505060405180910390f35b3480156102b657600080fd5b506102ed600480360360408110156102cd57600080fd5b810190808035906020019092919080359060200190929190505050610936565b6040518082815260200191505060405180910390f35b60008060008084815260200190815260200160002090508060040160009054906101000a900460ff1615156103a0576040517f08c379a00000000000000000000000000000000000000000000000000000000081526004018080602001828103825260178152602001807f4169726c696e6520646f6573206e6f742065786973742100000000000000000081525060200191505060405180910390fd5b60006001600086815260200190815260200160002090508060050160009054906101000a900460ff16151561043d576040517f08c379a00000000000000000000000000000000000000000000000000000000081526004018080602001828103825260168152602001807f466c6967687420646f6573206e6f74206578697374210000000000000000000081525060200191505060405180910390fd5b806000015481600101541015156104bc576040517f08c379a00000000000000000000000000000000000000000000000000000000081526004018080602001828103825260148152602001807f5468697320666c696768742069732066756c6c2100000000000000000000000081525060200191505060405180910390fd5b6002600087815260200190815260200160002060000160149054906101000a900460ff1615156105ca5760408051908101604052803373ffffffffffffffffffffffffffffffffffffffff168152602001600115158152506002600088815260200190815260200160002060008201518160000160006101000a81548173ffffffffffffffffffffffffffffffffffffffff021916908373ffffffffffffffffffffffffffffffffffffffff16021790555060208201518160000160146101000a81548160ff021916908315150217905550905050858160040182600101548154811015156105a757fe5b906000526020600020018190555080600101600081548092919060010191905055505b85925050509392505050565b60016020528060005260406000206000915090508060000154908060010154908060020154908060030154908060050160009054906101000a900460ff16905085565b60006020528060005260406000206000915090508060000154908060020154908060030154908060040160009054906101000a900460ff16905084565b60026020528060005260406000206000915090508060000160009054906101000a900473ffffffffffffffffffffffffffffffffffffffff16908060000160149054906101000a900460ff16905082565b60008060008086815260200190815260200160002090508060040160009054906101000a900460ff161515610744576040517f08c379a00000000000000000000000000000000000000000000000000000000081526004018080602001828103825260168152602001807f4169726c696e6520646f6573206e6f742065786973740000000000000000000081525060200191505060405180910390fd5b806003015481600201541015156107e9576040517f08c379a000000000000000000000000000000000000000000000000000000000815260040180806020018281038252602b8152602001807f54686973206169726c696e6520646f6573206e6f7420737570706f7274206d6f81526020017f726520666c69676874732100000000000000000000000000000000000000000081525060400191505060405180910390fd5b6001600087815260200190815260200160002060050160009054906101000a900460ff16151561092a5760c06040519081016040528060ff81526020016000815260200185815260200184815260200160ff6040519080825280602002602001820160405280156108695781602001602082028038833980820191505090505b50815260200160011515815250600160008881526020019081526020016000206000820151816000015560208201518160010155604082015181600201556060820151816003015560808201518160040190805190602001906108cd929190610aa6565b5060a08201518160050160006101000a81548160ff0219169083151502179055509050508581600101826002015481548110151561090757fe5b906000526020600020018190555080600201600081548092919060010191905055505b85915050949350505050565b600080600084815260200190815260200160002060040160009054906101000a900460ff161515156109d0576040517f08c379a00000000000000000000000000000000000000000000000000000000081526004018080602001828103825260178152602001807f4169726c696e6520616c7265616479206578697374732100000000000000000081525060200191505060405180910390fd5b60a06040519081016040528083815260200160ff604051908082528060200260200182016040528015610a125781602001602082028038833980820191505090505b5081526020016000815260200160ff815260200160011515815250600080858152602001908152602001600020600082015181600001556020820151816001019080519060200190610a65929190610aa6565b50604082015181600201556060820151816003015560808201518160040160006101000a81548160ff02191690831515021790555090505082905092915050565b828054828255906000526020600020908101928215610ae2579160200282015b82811115610ae1578251825591602001919060010190610ac6565b5b509050610aef9190610af3565b5090565b610b1591905b80821115610b11576000816000905550600101610af9565b5090565b9056fea165627a7a723058201f564a192609383369b5a426442e26359614aa41b5609f4f5a97d9c3473f03f10029",
  "source": "pragma solidity ^0.5.0;\n\ncontract Reservations {\n    struct Seat {\n        address passenger;\n        bool exists;\n    }\n\n    struct Flight {\n        uint max_seats;\n        uint seat_count;\n        bytes32 origin;\n        bytes32 dest;\n        uint[] seats;\n        bool exists;\n    }\n\n    struct Airline {\n        bytes32 name;\n        uint[] flights;\n        uint flight_count;\n        uint max_flight_count;\n        bool exists;\n    }\n\n    // These mappings keep track of all objects created by this contract.\n    // The structs above are gonna reference these by id.\n    // Example:\n    //     if flight 39 belongs to airline 10, flights mapping is going to have\n    //     flights[39] => some flight struct, and struct airline[10] is going to\n    //     have 39 as one of the elements in its flights array. The same goes\n    //     for seats.\n    mapping(uint => Airline) public airlines;\n    mapping(uint => Flight) public flights;\n    mapping(uint => Seat) public seats;\n\n    function createAirline(uint id, bytes32 name)\n            public returns (uint) {\n\n        require(!airlines[id].exists, \"Airline already exists!\");\n\n        airlines[id] = Airline(\n            name,\n            new uint[](255),\n            0,   // initial flight count\n            255, // max flights allowed\n            true\n        );\n\n        return id;\n    }\n\n    function createFlight(uint id, uint airline_id, bytes32 orig,\n            bytes32 dest) public returns (uint) {\n\n        // Get airline, check if it exists and if we can add more flights\n        Airline storage airline = airlines[airline_id];\n        require(airline.exists, \"Airline does not exist\");\n        require(airline.flight_count < airline.max_flight_count,\n            \"This airline does not support more flights!\");\n\n        // If the flight does not exist in global flights, create it\n        if(!flights[id].exists) {\n            flights[id] = Flight(\n                255, // max seats allowed\n                0,   // initial seat count\n                orig,\n                dest,\n                new uint[](255),\n                true\n            );\n\n            // Add the new flight to the current airline\n            airline.flights[airline.flight_count] = id;\n            airline.flight_count++;\n        }\n\n        return id;\n    }\n\n    function reserveSeat(uint id, uint flight_id, uint airline_id)\n            public returns (uint) {\n\n        Airline storage airline = airlines[airline_id];\n        require(airline.exists, \"Airline does not exist!\");\n\n        Flight storage flight = flights[flight_id];\n        require(flight.exists, \"Flight does not exist!\");\n        require(flight.seat_count < flight.max_seats, \"This flight is full!\");\n\n        if(!seats[id].exists) {\n            seats[id] = Seat(\n                msg.sender,\n                true\n            );\n\n            flight.seats[flight.seat_count] = id;\n            flight.seat_count++;\n        }\n\n        return id;\n    }\n\n}\n",
  "sourcePath": "/home/ge/Documents/insper/9/ADB_Ativo_Digitais_Blockchain/Travelock/travelock/contracts/Reservations.sol",
  "compiler": {
    "name": "solc",
    "version": "0.5.0+commit.1d4f565a.Emscripten.clang"
  },
  "schemaVersion": "3.0.6",
  "updatedAt": "2019-05-06T20:22:14.959Z",
  "devdoc": {
    "methods": {}
  },
  "userdoc": {
    "methods": {}
  }
}